:020000040040BA
:10000000F02C4020390D4000370D4000370D4000E6
:10001000370D4000370D4000370D40000000000054
:10002000000000000000000000000000111140006E
:10003000370D400000000000B111400019124000CF
:10004000370D4000370D4000370D4000370D4000A0
:10005000370D4000370D4000370D4000370D400090
:10006000370D400000000000E5094000F90940009C
:100070000D0A4000370D4000370D4000370D40009D
:10008000210A4000350A4000370D4000370D40007E
:10009000370D4000370D4000370D4000E93040007B
:1000A000370D4000370D4000370D4000370D400040
:1000B000370D4000B5064000370D4000370D4000B9
:1000C000370D4000370D4000370D4000370D400020
:1000D00000000000370D400000000000370D400018
:1000E000C9064000370D4000370D4000370D400075
:1000F000370D4000370D4000370D4000370D4000F0
:10010000370D4000370D4000370D4000370D4000DF
:10011000370D40000000000000000000000000005B
:10012000370D4000370D4000370D4000370D4000BF
:10013000370D400000000000370D4000370D400033
:1001400010B5054C237833B9044B13B10448AFF311
:1001500000800123237010BDC00940200000000072
:10016000E86F40000C4B43B10C480D4910B5AFF39C
:1001700000800C48036823B910BD0A48036833B9EE
:100180007047094B002BF7D0BDE810401847064BCD
:10019000002BF5D0184700BF00000000E86F4000BA
:1001A000C4094020E86F40000000000010B510486E
:1001B000104B98473E2100200F4B98470F4CA0470B
:1001C0000028FCD00E4B98470E4A0F4B9A620F4CFA
:1001D000A0470028FCD002200D4B984700200D4B73
:1001E00098470D4B98470248024B984710BD00BFF7
:1001F00000A3E1110D0F4000E50A4000390B40005B
:10020000490B4000013F182000060E40590B4000EA
:10021000490A4000810A4000010E40002DE9F041EA
:1002200080B90C469046002A0FDD8F18084E094D04
:10023000306821462B6898470134BC42F8D14046CB
:10024000BDE8F0814FF0FF38F9E78046F7E700BFDF
:10025000E40B4020DC0B40200138022815D82DE9A2
:10026000F0410E4614469AB10D46DFF838800C4F27
:10027000D8F8000015F8011B3B68984700280ADBF6
:10028000A81B013CF4D1BDE8F0814FF0FF3070476E
:100290001046BDE8F0814FF0FF30BDE8F08100BFAF
:1002A000E00B4020E40B4020F8B54FF400425C4BDB
:1002B0005A60BFF34F8FBFF36F8F5A4B0022C3F8C2
:1002C00050225A6942F400325A61BFF34F8FBFF394
:1002D0006F8FD3F88070C7F34E3607F007000430F5
:1002E000C7F3C907B7FA87FE0EF01F0EBFF34F8F93
:1002F0004FF0FF3404FA00FC06FA00F004FA0EF4A2
:1003000007FA0EFE1D463A46734640EA0301C5F859
:100310006012013A2344B2F1FF3FF6D1013E60443E
:10032000B6F1FF3FEFD1BFF34F8F3E4B5A6942F416
:1003300080325A61BFF34F8FBFF36F8F3A4A3B4908
:100340005160A1F580715160BFF34F8FBFF36F8F84
:10035000D3F8902222F00102C3F89022D3F894221D
:1003600022F00102C3F89422BFF34F8FBFF36F8FC7
:100370000A202F4CA0470B20A0470C20A04710209C
:10038000A0471120A0472B4B4FF480721A61C3F88D
:10039000A0201A63A3F580634FF400625A61C3F88A
:1003A000A0205A66C3F890205A651A62C3F88420C8
:1003B000196F21F400611967596F21F400615967C1
:1003C000C3F8C020C3F8D420C3F8B0204FF4001203
:1003D0001A66C3F890205A655A62C3F88020196FD4
:1003E00021F400111967596F21F4001159675A60FF
:1003F000114AD2F8143143F01003C2F814310F4BF4
:1004000010221A66C3F890205A655A62C3F88020F9
:10041000196F11431967596F114359675A60F8BD35
:1004200050180E4000ED00E0000C0E400C08005A81
:10043000690B400000120E400080084000100E4082
:1004400070B582B0026BC36A1340019300241C4E46
:100450001C4DA84214BF0020012005010BE00E2C0A
:100460001ED8019A04F10C0101238B40134210D1D4
:100470000134102C22D00B2CF1D8019A0123A34077
:100480001342F5D02B1956F82330002BF0D09847A3
:10049000EEE72B1956F82330002BE9D09847E7E711
:1004A000019A04F10F0101238B401342E0D02B1974
:1004B00056F82330002BDBD09847D9E702B070BD47
:1004C000E80B40200040064030B4046E01238B400E
:1004D00024EA03041578002D08BF00232343036694
:1004E000446D4B000321994024EA0104517899405E
:1004F0002143416530BC70474B780A78134303674A
:100500008A884B8843EA02434367704700220260AF
:10051000084B4360084B83604FF48023C360022381
:100520000374012343748374C27403754375837524
:10053000704700BF00A3E111808D5B0000230370B2
:100540000123437070470023037020234370FF236F
:10055000438040F6FF73838070470000026B12F007
:10056000807201D01920704710B401230360CB7C46
:10057000002B18BF4FF000424B688C68B3FBF4F3BC
:10058000013B1B029BB2CC6844F4000423430C7C67
:10059000240604F0706423434C7C240704F0405488
:1005A0002343134343600B7D002B14BF4FF0807334
:1005B00000230A6813434A7D002A14BF4FF00072DB
:1005C0000022134383608B7D1B0203F4407343F0CE
:1005D0000C03C0F894300F4B984206D00E4B984253
:1005E0000DD000205DF8044B70470C4B03F1400127
:1005F000002243F8042F8B42FBD10020F2E7084B86
:1006000003F14001002243F8042B8B42FBD1002070
:10061000E8E700BF00C0034000400640E40B402074
:10062000280C40200C4B994207D00B290BD806D040
:10063000012303FA01F141627047436270474FF4AE
:100640000063436270470E2994BF0C310F310123C0
:1006500003FA01F141627047FF0F004738B5114CB2
:10066000A0420CBF102400240C440F4D45F8242058
:100670000AD10E4A4FF48074C2F884415B01DBB2A8
:1006800082F82833546009E0084A4FF00054C2F859
:1006900080415B01DBB282F81D331460044B984744
:1006A00038BD00BF00400640E80B402000E100E0FC
:1006B0002506400008B50248024B984708BD00BF18
:1006C00000C003404104400008B50248024B98476F
:1006D00008BD00BF004006404104400000B583B0A3
:1006E000134B98420CBF28201D20124B9847124BE9
:1006F0009B78FF2B1AD0EFF31083B3FA83F35B09D7
:10070000019372B6BFF35F8F00220C4B1A700199F0
:10071000094A93780133937029B10122074B1A706B
:10072000BFF35F8F62B603B05DF804FBFEE700BF66
:1007300000400640690B4000D40B40200A004020D6
:10074000016370474163704721F00061B1F1405F80
:1007500005D1836B134214BF012000207047C36B87
:10076000F8E74264B1F1C05F3AD013D8B1F1006F3D
:1007700025D0B1F1805F0AD1036F13430367436F44
:10078000416F0B4023EA0203436742607047002930
:10079000FBD17047B1F1205F21D009D8B1F1005FE2
:1007A000F3D1036F13430367436F13434367ECE7CE
:1007B000B1F1405F13D0B1F1605F10D0E5E710B444
:1007C000016F046FD34321401C4619400167436FFA
:1007D000416F0B402340436742605DF8044B704714
:1007E000036F016F0B4023EA02030367436F134358
:1007F0004367CAE7416412F0010F0DD1016612F0A0
:100800000A0F0BD0016212F0020F09D112F0080F8B
:1008100008D0C0F8841005E04166F0E74162F2E7D5
:10082000C0F8801041610160704710B4019C4164C0
:100830004CB901664BB101654AB941630161016080
:100840005DF8044B70474166F4E74165F4E70163E6
:10085000F4E7000070B582B0054616461C46B1F1BB
:10086000005F14D00AD9B1F1405F24D0B1F1605FCC
:1008700021D0B1F1205F17D000201AE0B1F1805FE4
:1008800005D0B1F1C05F02D0B1F1006FF4D13246B2
:100890002846114B984714F0010F02D12E66012013
:1008A00007E06E66012004E01A4631460B4B98477C
:1008B000012002B070BD04F001030093C4F3800373
:1008C000B1F1605F14BF0022012231462846044C7A
:1008D000A0470120EDE700BF63074000F507400097
:1008E0002B08400012F0100F12D0C0F8B01012F018
:1008F000200F07D0C0F8D41012F0400F05D0C0F878
:10090000C0107047C0F8D010F6E7C0F8C4107047A8
:10091000C0F8B410704701647047C06C7047806CB9
:10092000704700002DE9F041044688460E4B984779
:10093000054620460D4B9847054013D00C4C04F15A
:10094000600603E0B4420DD010345DB1206840452C
:10095000F8D161682942F5D0E3689847636825EAD1
:100960000305EFE7BDE8F0811B0940001F094000C7
:10097000DC094020F8B5184C2668062E2AD84FF01E
:10098000000C6446154F04E00134E4B2A446A642CC
:1009900009D3A64625017D598D42F5D107EB0415F3
:1009A0006D689542F0D10D4D4FEA0E1E05EB0E0419
:1009B00045F80E106260A3600699E1600136664555
:1009C00005D011461A46064B98470020F8BD02494B
:1009D0000E60F6E70120F8BD4C0A4020DC094020FB
:1009E000E508400008B50A210148024B984708BDB8
:1009F000000E0E402509400008B50B210148024BAE
:100A0000984708BD00100E402509400008B50C218C
:100A10000148024B984708BD00120E4025094000CE
:100A200008B510210148024B984708BD00140E403C
:100A30002509400008B511210148024B984708BD1F
:100A400000160E4025094000032811D0042812D0BA
:100A500002280CBF4FF480710021084A136B23F465
:100A600040730B431363936E13F0080FFBD0704772
:100A70004FF44071F1E74FF40071EEE700060E40CD
:100A8000174A136B23F0700318431063936E13F02F
:100A9000080F0AD14FF4805311498A6E12F0080FE3
:100AA00003D1013BF9D1012070470D4A136B23F0AC
:100AB000030343F002031363936E13F0080F0AD18C
:100AC0004FF4805306498A6E12F0080F05D1013B9E
:100AD000F9D101207047002070470020704700BF07
:100AE00000060E40A0B90E48036A090289B20D4AF9
:100AF0001A400D4B1343194301620246936E13F0E3
:100B0000010FFBD0064A116A084B0B431362704772
:100B100003490B6A064A1A40064B13430B6270479F
:100B200000060E40FCFFC8FF01003700000037013F
:100B3000FCFFC8FE02003701024B986E00F48030C3
:100B4000704700BF00060E404FF00052014B9A6202
:100B5000704700BF00060E40024B986E00F0020086
:100B6000704700BF00060E403F281ED81F280CD833
:100B7000114B9A6901238340934318D0012303FA50
:100B800000F00D4B18610020704720380A4BD3F855
:100B900008210123834093430BD0012303FA00F083
:100BA000054BC3F80001002070470120704700206A
:100BB00070470020704700BF00060E4010B4890146
:100BC0004318022444504FF0FF319962196A5A6069
:100BD0005DF8044B7047890105234350704700EBD3
:100BE00081110869704700EB8111CA61704700EB01
:100BF00081114A62704700EB8111086A70474369AE
:100C000013F0020F02D0C16100207047012070472D
:100C1000436913F0010F03D083690B700020704704
:100C20000120704710B40B01934214D9C9004B083E
:100C300003EBC202B2FBF1F2D3085C1E4FF6FE7169
:100C40008C4201D9012017E0416841F40021416044
:100C50000CE0012010E0590801EBC202B2FBF3F2F4
:100C6000D3085C1E4FF6FE718C42F2D8120402F4D7
:100C7000E0221A43026200205DF8044B7047000036
:100C8000084BC0F8E430002343604362836288234A
:100C90000360242303604FF4807303604FF4002348
:100CA000036070470041535570B505460C46164623
:100CB0000F4B984700220F4B1A60A4B132462168AF
:100CC00028460D4B9847024678B96368A1680B43E4
:100CD00021690B43E1680B4306490B6069680B43CC
:100CE0006B60104670BD0122FBE70122F9E700BFEF
:100CF000810C4000500A4020250C40004023036036
:100D00007047102303607047436913F0020F04D04B
:100D1000C1F30801C1610020704701207047436999
:100D200013F0010F05D08369C3F308030B600020A3
:100D3000704701207047FEE700B583B0254B264A77
:100D40009A4210D0254B234A9A420CD2013B9B1A5F
:100D500023F00303043313441F4951F8040B42F8F2
:100D6000040B9A42F9D11E4B1E4A9A420AD2013B09
:100D70009B1A23F0030304331344002142F8041B9D
:100D80009342FBD1184A194B23F07F039360EFF392
:100D90001083B3FA83F35B09019372B6BFF35F8FDD
:100DA0000022134B1A700199124A136843F470031E
:100DB0001360BFF34F8FBFF36F8F29B101220C4B2C
:100DC0001A70BFF35F8F62B60B4B98470B4B984777
:100DD000FEE700BF00004020E86F4000C00940204F
:100DE000F00C4020C009402000ED00E00000400071
:100DF0000A00402088ED00E00D3E40001D34400018
:100E00003B4B1B6B03F00303012B1DD083B1022B63
:100E100036D0374B1B6B03F07003702B5FD0344B15
:100E20001A6B3449C2F302120B68D3400B6070474F
:100E3000314B5B6913F0800F14BF4FF400424FF445
:100E4000FA422C4B1A60E4E7294B1B6A13F0807FAF
:100E500003D02A4A274B1A60DBE7294A254B1A6040
:100E6000234B1B6A03F07003102B05D0202BD0D12D
:100E7000224A204B1A60CCE7224A1E4B1A60C8E770
:100E80001B4B1B6A13F0807F16D01C4A194B1A604B
:100E9000174B1B6B03F00303022BBAD1144A916A60
:100EA000926A1448C1F30A41036801FB0333D2B2CA
:100EB000B3FBF2F30360ACE7114A0E4B1A600C4B24
:100EC0001B6A03F07003102B05D0202BE0D10B4AD6
:100ED000084B1A60DCE70B4A064B1A60D8E7054A54
:100EE00013680949A1FB03135B081360704700BF37
:100EF00000060E400C00402010180E40001BB700EA
:100F000000093D0000127A00ABAAAAAA164B98422B
:100F100013D9164B984215D9154B984216D9154B33
:100F2000984217D9144B984218D9144B984294BF41
:100F3000134A144A144B1A6070474FF08062124BE8
:100F40001A607047114A104B1A607047104A0E4BD6
:100F50001A6070470F4A0C4B1A6070474FF004221A
:100F6000094B1A60704700BFBFF35E017FE7BD0207
:100F70003FDB1C04FFCE7B05BFC2DA067FB6390813
:100F80000005000400060004000C0E4000010004EF
:100F900000020004000300040A4B1B6853B1094B14
:100FA0001B681A180849914208DB1046054A106070
:100FB00018467047054A034B1A60F0E74FF0FF30C0
:100FC000704700BF540A4020FCFF4520F02E40200F
:100FD0004FF0FF3070474FF400534B6000207047D4
:100FE000012070470020704700F1080343604FF074
:100FF000FF328260C36003610023036070470023F7
:101000000361704743684B609A688A609A685160D0
:1010100099600861036801330360704730B40D685C
:10102000B5F1FF3F02D000F1080202E0026904E0DE
:101030001A4653681C68A542FAD253684B609960FF
:101040008A605160086103680133036030BC7047F7
:1010500003694268816891608268416851605A689A
:10106000904205D00022026118680138186070476C
:1010700082685A60F6E700000D4B1B68B3F1FF3F32
:101080000AD04FF0800372B683F31188BFF36F8FDD
:10109000BFF34F8F62B6FEE74FF0800372B683F363
:1010A0001188BFF36F8FBFF34F8F62B6FEE700BFAB
:1010B0001000402006480068006880F3088862B687
:1010C00061B6BFF34F8FBFF36F8F00DF00BF00002B
:1010D00008ED00E0DFF80C00016841F470010160E8
:1010E0007047000088ED00E04FF0807340F8043C4A
:1010F00040F8081C054B40F80C3C40F8202C6FF0E1
:10110000020340F8243C4438704700BF7910400087
:10111000064B19680868B0E8F04F80F30988BFF300
:101120006F8F4FF0000080F311887047600A4020F5
:10113000704700BF4FF0800372B683F31188BFF38E
:101140006F8FBFF34F8F62B60B4A13680133136082
:10115000012B0FD1094B1B6813F0FF0F0AD04FF082
:10116000800372B683F31188BFF36F8FBFF34F8F85
:1011700062B6FEE7704700BF1000402004ED00E0BB
:101180000A4B1B6853B94FF0800372B683F3118882
:10119000BFF36F8FBFF34F8F62B6FEE7013B034A89
:1011A00013600BB983F31188704700BF1000402013
:1011B000EFF30980BFF36F8F154B1A681EF0100F05
:1011C00008BF20ED108A20E9F04F10604DF8043D73
:1011D0004FF0800072B680F31188BFF34F8FBFF3DA
:1011E0006F8F62B601F0FEF84FF0000080F31188B7
:1011F00008BC19680868B0E8F04F1EF0100F08BF6F
:10120000B0EC108A80F30988BFF36F8F704700BF7E
:10121000600A4020704700BF08B5EFF311834FF01C
:10122000800272B682F31188BFF36F8FBFF34F8FC6
:1012300062B6054B984718B14FF08052034B1A60C5
:10124000002383F3118808BD5120400004ED00E025
:10125000034A044B1A600722043B1A60704700BF20
:10126000BF27090014E000E000B583B0254B1A78D1
:10127000D2B20192FF221A701B78DBB28DF80330D4
:101280009DF8033003F080031F4A137007221F4BA1
:101290001A609DF8033013F0800F10D0062200E092
:1012A0000A469DF803305B00DBB28DF803309DF8F1
:1012B0000330511E13F0800FF2D1144B1A60134A01
:1012C00013681B0203F4E0631360019BDBB20D4A59
:1012D00013700F4B1A6842F460021A601A6842F0E9
:1012E00060421A600B4B984700220B4B1A600B4B65
:1012F00098470B4A136843F040431360094B9847E3
:10130000094B984700E400E0580A40205C0A40205E
:1013100020ED00E05112400010004020D5104000A8
:1013200034EF00E0B510400079104000EFF3058382
:101330000F2B11D9124A9B5CDBB2124A12789A42E7
:101340000AD94FF0800372B683F31188BFF36F8F11
:10135000BFF34F8F62B6FEE70B4B1B6803F4E063ED
:101360000A4A126893420AD94FF0800372B683F397
:101370001188BFF36F8FBFF34F8F62B6FEE77047E0
:10138000F0E300E0580A40200CED00E05C0A402049
:1013900010B50446064B98472046064B984704462E
:1013A000054B98470CB1204610BD044B9847FAE70F
:1013B00035204000853E40009D214000D330400054
:1013C00048B110B50446044B98472046034B984754
:1013D000034B984710BD704735204000953E4000B4
:1013E0009D21400038B504461546026C5AB9036881
:1013F000002B2ED140681B4B984700236360A36BE2
:101400000133A36338BD6DB98068174B9847A36853
:10141000226C1344A360626893421CD32368A360C8
:101420000020ECE7C068104B9847236C5B42E268F1
:101430001A44E26021688A4202D262681344E3607F
:10144000022D0AD1A36B53B1A36B013BA363002010
:10145000D5E70020D3E70020D1E70020CFE7002028
:10146000CDE700BFE52740000544400030B583B01C
:101470000190446D74B1A26BE36B9A4215D34FF0A7
:10148000800372B683F31188BFF36F8FBFF34F8F62
:1014900062B6FEE74FF0800372B683F31188BFF3A4
:1014A0006F8FBFF34F8F62B6FEE7A26B934203D8F4
:1014B0000025284603B030BD0A4601A920460B4B43
:1014C00098470546A36CB3F1FF3F0AD1636A002B2E
:1014D000EFD004F12400064B9847002818BF0125DF
:1014E000E7E7A36C0133A364E3E700BFE513400023
:1014F000B9254000026C72B110B50346C4681444AB
:10150000C4604068844201D31868D8600846D9682E
:10151000014B984710BD704705444000F8B504469C
:10152000224B9847A36C002B1BDD214D214F224EEF
:101530000BE0636AABB104F12400B04778B9A36C47
:10154000013BA364A36C002B0BDD636D002BF0D07B
:1015500000212046A8470128F1D1B847EFE7B84756
:10156000EDE74FF0FF33A364144B98470F4B9847B8
:10157000636C002B14DD236993B104F110060E4D4A
:101580000C4F07E0636C013B6364636C002B07DD69
:1015900023692BB13046A8470028F3D0B847F1E7BC
:1015A0004FF0FF336364054B9847F8BD3511400099
:1015B0006D14400015274000B925400081114000FE
:1015C00038B508B304460D461D4B98472268216C78
:1015D000E36B03FB01F3D01860600020A063A260FE
:1015E0005B1A1344E3604FF0FF336364A364FDB9F7
:1015F00023692BB104F11000124B984701280ED03B
:10160000114B9847012038BD4FF0800372B683F329
:101610001188BFF36F8FBFF34F8F62B6FEE74FF0B5
:1016200080520A4B1A60BFF34F8FBFF36F8FE7E70B
:1016300004F11000064DA84704F12400A847DFE795
:1016400035114000B92540008111400004ED00E053
:10165000E90F4000F8B550B94FF0800372B683F33C
:101660001188BFF36F8FBFF34F8F62B6FEE7064658
:1016700017460D4689B101FB00F05930124B9847CF
:101680000446E8B94FF0800372B683F31188BFF3C4
:101690006F8FBFF34F8F62B6FEE758200A4B984713
:1016A00004460028EED02060E66325640121204630
:1016B000064B984784F85070002363652046F8BDB8
:1016C00000F158030360EFE791134000C11540009B
:1016D0002DE9F04F85B00192B8B1044601B3022B59
:1016E0002CD01D468846664B9847002834D1019B74
:1016F000002B38D04FF0800372B683F31188BFF30C
:101700006F8FBFF34F8F62B6FEE74FF0800372B664
:1017100083F31188BFF36F8FBFF34F8F62B6FEE77D
:10172000026C002ADBD04FF0800372B683F311887D
:10173000BFF36F8FBFF34F8F62B6FEE7E26B012AF4
:10174000CFD04FF0800372B683F31188BFF36F8F51
:10175000BFF34F8F62B6FEE700274A4EDFF850A175
:10176000DFF82C9142E00027F7E72A464146204661
:10177000454B9847636D9BB129462046434B98479C
:10178000012807D14FF08052414B1A60BFF34F8FB1
:10179000BFF36F8F3F4B9847012005B0BDE8F08F36
:1017A000636A73B104F124003B4B98470128F1D1DF
:1017B0004FF08052364B1A60BFF34F8FBFF36F8FDD
:1017C000E8E70028E6D04FF08052314B1A60BFF3B3
:1017D0004F8FBFF36F8FDDE72E4B98470020DCE77C
:1017E00020462E4B98472E4B98470127B047A26BB7
:1017F000E36B9A42B9D3022DB7D0019B002BEBD0FB
:101800000FB902A8D047234B9847264B9847B047BB
:10181000636CB3F1FF3F01D100236364A36CB3F1A8
:10182000FF3F01D10023A3641A4B984701A902A8E6
:101830001D4B9847E0B9B047D4F838B0E76B154B6B
:101840009847BB45CCD1019904F11000174B98473C
:101850002046124B9847124B98470028C5D14FF0AD
:101860008053C9F80030BFF34F8FBFF36F8FBCE7D1
:1018700020460A4B98470A4B984700208DE700BF47
:101880002127400035114000E51340006D14400051
:1018900004ED00E081114000B92540001D15400015
:1018A0009D2140003520400081264000B5244000A5
:1018B00051264000002836D02DE9F0410446002989
:1018C0003CD0022B48D01E4615468846354B9847DB
:1018D000EFF311874FF0800372B683F31188BFF3E3
:1018E0006F8FBFF34F8F62B6A26BE36B9A4201D347
:1018F000022E4FD13246414620462B4B9847A36CCF
:10190000B3F1FF3F41D1636D002B33D03146204608
:10191000264B9847002D3FD001283DD1286087F302
:101920001188BDE8F0814FF0800372B683F311880F
:10193000BFF36F8FBFF34F8F62B6FEE7006C0028D6
:10194000BFD04FF0800372B683F31188BFF36F8F5F
:10195000BFF34F8F62B6FEE7E06B0128B3D04FF0C4
:10196000800372B683F31188BFF36F8FBFF34F8F7D
:1019700062B6FEE7636A8BB104F124000C4B984712
:1019800075B168B101202860C9E7A36C0133A36475
:101990000120C4E70020C2E70120C0E70120BEE724
:1019A0000120BCE72D134000E51340006D144000FA
:1019B000B925400070B170B50446036CABB14FF06F
:1019C000800372B683F31188BFF36F8FBFF34F8F1D
:1019D00062B6FEE74FF0800372B683F31188BFF35F
:1019E0006F8FBFF34F8F62B6FEE7036833B30D46C8
:1019F000254B9847EFF311864FF0800372B683F3BF
:101A00001188BFF36F8FBFF34F8F62B6A26BE36B8A
:101A10009A4231D2A36B0133A363A36CB3F1FF3FAE
:101A200025D1636DC3B100212046184B98472DB3D3
:101A3000012823D1286086F3118870BD4368002BEC
:101A4000D5D04FF0800372B683F31188BFF36F8F48
:101A5000BFF34F8F62B6FEE7636A8BB104F12400D7
:101A60000B4B984775B168B101202860E3E7A36C80
:101A70000133A3640120DEE70020DCE70120DAE780
:101A80000120D8E70120D6E72D1340006D14400057
:101A9000B92540002DE9F04784B0019298B1044681
:101AA000E1B198460F46614B984728BB019B53B361
:101AB0004FF0800372B683F31188BFF36F8FBFF3CB
:101AC0004F8F62B6FEE74FF0800372B683F3118842
:101AD000BFF36F8FBFF34F8F62B6FEE7026C002A31
:101AE000DFD04FF0800372B683F31188BFF36F8F9E
:101AF000BFF34F8F62B6FEE700264D4DDFF860A1C1
:101B0000DFF83C914BE00026F7E7E56839462046D0
:101B1000484B9847B8F1000F1DD1A36B013BA3635D
:101B2000236813B9444B9847606023696BB104F193
:101B30001000424B9847012807D14FF08052404B8C
:101B40001A60BFF34F8FBFF36F8F3E4B9847012052
:101B500004B0BDE8F087E560636A002BF5D004F1BE
:101B60002400364B98470028EFD04FF08052344B7A
:101B70001A60BFF34F8FBFF36F8FE6E7314B984783
:101B80000020E5E7A84760682F4B98472D4B984702
:101B900030E020462D4B98472D4B98470126A8470B
:101BA000A36B002BB1D1019B002BE7D00EB902A88B
:101BB000D047244B9847274B9847A847636CB3F10D
:101BC000FF3F01D100236364A36CB3F1FF3F01D158
:101BD0000023A3641B4B984701A902A81E4B9847FA
:101BE000E8B9A847A66B174B9847002ED1D12368B8
:101BF000002BC7D0019904F12400184B98472046C8
:101C0000124B9847124B98470028C7D14FF080538A
:101C1000C9F80030BFF34F8FBFF36F8FBEE7204688
:101C20000A4B98470A4B9847002091E7212740002C
:101C300035114000F5144000A1284000B9254000AE
:101C400004ED00E081114000412740001D154000D7
:101C50009D2140003520400081264000B5244000F1
:101C60005126400010B40B4B1B6853B10123094CA3
:101C700054F8332032B10133082BF9D15DF8044B0D
:101C800070470023034A42F8331002EBC303586045
:101C9000F4E700BF680C402070B504460D461646B8
:101CA0000F4B9847636CB3F1FF3F0BD0A36CB3F1BC
:101CB000FF3F0AD00B4B9847A36B4BB120460A4B12
:101CC000984770BD00236364F0E70023A364F1E745
:101CD0003246294604F12400044B9847EEE700BF42
:101CE00035114000811140001D154000392540008C
:101CF000084B1B681B683BB1064B1B68DB68DB6845
:101D00005A68054B1A6070474FF0FF32024B1A6059
:101D1000704700BF640A4020100B402010B50F4BE5
:101D20001B6858600E4B1B6898420ED304460D4B3F
:101D300018680A4B196804310B4B98470B4B1B680A
:101D40009C4201D2094B1C6010BD094B1868034B23
:101D500019680431044B984710BD00BF600A402049
:101D6000580B4020640A40201D104000100B4020FA
:101D7000680A40202DE9F04F83B00C9DDDF834A0B7
:101D80000E9E60B1042D15D94FF0800372B683F317
:101D90001188BFF36F8FBFF34F8F62B6FEE74FF02E
:101DA000800372B683F31188BFF36F8FBFF34F8F39
:101DB00062B6FEE70190984691460F4636B990000C
:101DC000624B98470646002800F09E8058205F4BE3
:101DD00098470446002800F0948006634FEA890281
:101DE000A52130465A4B98476FF040464E44236B2E
:101DF00003EB860323F007063B7884F834303B7806
:101E0000002B40F08480002784F83D70E562A564D3
:101E1000E76404F104094846DFF884B1D84704F1C7
:101E20001800D8472461C5F10503A36164622765E2
:101E300084F85470424601993046464B98472060DA
:101E4000BAF1000F01D0CAF80040434B9847434A0B
:101E5000136801331360424B1B68002B66D1404B63
:101E60001C601368012B21D13E4F38463E4EB047CF
:101E700007F11400B04707F12800B04707F13C0014
:101E8000B04707F15000B047DFF818814046B0472F
:101E9000364F3846B0473648B0473648B0473648E0
:101EA000B047364BC3F80080354B1F60354A136886
:101EB000013313602364E06A334A116801238340CD
:101EC0000B43136000EB80004946264B03EB800078
:101ED0002E4B98472E4B98472E4B1B68002B31D02A
:101EE0001F4B1B68DB6A9D422ED94FF080522A4B54
:101EF0001A60BFF34F8FBFF36F8F012003B0BDE8AF
:101F0000F08F3046254B98474FF0FF30F6E73B46C1
:101F100004F134020937597802F8011F13F8011F40
:101F200000293FF470AFBB42F5D16CE7194B1B6839
:101F3000002BBBD10A4B1B68DB6A9D42B6D3084B12
:101F40001C60B3E70120D9E70120D7E791134000D7
:101F500039454000E910400035114000D00A4020CA
:101F6000600A40206C0A4020E90F4000FC0A402033
:101F7000180B4020440B4020300B4020640A4020C6
:101F8000680A4020DC0A4020E40A40200510400096
:101F9000811140002C0B402004ED00E0C1134000F3
:101FA000FF0F4000E80A402010B584B000230393DF
:101FB000029301930093822216491748174CA047B9
:101FC00001280BD020BB4FF0800372B683F3118839
:101FD000BFF36F8FBFF34F8F62B6FEE7104B98478A
:101FE0000128EFD14FF0800372B683F31188BFF35D
:101FF0006F8FBFF34F8F62B64FF0FF32094B1A60FD
:102000000122094B1A600022084B1A60084B9847BE
:1020100004B010BD986D40004D234000751D400078
:102020008D294000100B40202C0B4020580B4020E5
:1020300069124000024A136801331360704700BF01
:10204000D80A4020014B1868704700BF580B402049
:102050002DE9F047424B1B68002B78D1414B1A68A1
:1020600001321A601E68D6B93F4B1B681B6853B11A
:102070004FF0800372B683F31188BFF36F8FBFF305
:102080004F8F62B6FEE7384A1168384B1868106007
:102090001960374A136801331360364B9847364B43
:1020A0001B689E4218D20024344B1B68DB6A03EB8A
:1020B0008303334A52F82330022B28BF0124314BCB
:1020C0001B680BB9304B9847304B1B68002B0CBF7B
:1020D00020460120BDE8F0870024DFF88C90DFF86F
:1020E000B8802B4F1FE04FF0FF32234B1A60DBE725
:1020F000214A1360D8E705F11800C047E86A3A683A
:102100000123834013433B6000EB800051461C4B8E
:1021100003EB80001F4B9847184B1B68EA6ADB6A89
:102120009A4228BF0124D9F800301B68002BDAD06E
:10213000D9F80030DB68DD686B689E42D8D305F1C2
:10214000040A5046C047AB6A002BD4D1D6E70D4AEB
:102150001368013313600C4B98470024B4E700BFA9
:10216000D80A4020580B4020640A4020680A4020CA
:10217000140B4020F11C4000100B4020600A40204E
:102180006C0A4020D40A4020D13040005C0B402033
:10219000E40A402005104000511040002DE9F843AA
:1021A000384B1B6853B94FF0800372B683F3118824
:1021B000BFF36F8FBFF34F8F62B6FEE7324B984786
:1021C000304B1A68013A1A601B68002B55D12F4B0F
:1021D0001B68002B32D100242D4B98472046BDE8C8
:1021E000F883FB68DC6804F11800B04704F10408C8
:1021F0004046B047E06A2A680123834013432B60BE
:1022000000EB8000414609EB8000224B9847224BAF
:102210001B68E26ADB6A9A420CD23B68002BE0D171
:102220001E4B1B68DBB11D4B1B68C3B11C4E1D4D03
:102230001A4C0EE001221B4B1A60EEE71A4F1B4EA0
:102240001B4DDFF87490E8E72368013B23602368A7
:102250002BB1B0470028F7D001232B60F4E7114BD6
:102260001B68012B0BD14FF08052124B1A60BFF349
:102270004F8FBFF36F8F0124AEE70024ACE700243B
:10228000AAE700BFD80A402035114000D00A4020FC
:102290008111400005104000600A4020D40A40200F
:1022A000512040005C0B4020180B40205110400092
:1022B000E40A402004ED00E06C0A402010B500283C
:1022C00029D00446184B1B6853B14FF0800372B6F7
:1022D00083F31188BFF36F8FBFF34F8F62B6FEE7B2
:1022E000124B9847124B1B681C44124B1868043061
:1022F000114B984748B90F4B1A6810490B68D06AC0
:102300000122824023EA02030B6020460C4B9847CF
:102310000C4B984738B94FF080520B4B1A60BFF303
:102320004F8FBFF36F8F10BDD80A4020352040007B
:10233000580B4020600A402051104000E40A402021
:102340001D1D40009D21400004ED00E080B5DFF838
:102350008880194EDFF884902AE0184B1B68012B07
:102360001ED82B68002BF8D0C0473468B847002C23
:10237000F7D0134B9847F368DC68201D114B984742
:10238000114A1368013B13602B68013B2B600F4B14
:102390009847206BDFF848A0D0472046D047E0E7B9
:1023A0004FF08053C9F80030BFF34F8FBFF36F8FEA
:1023B000074D084FD5E700BF440B40206C0A402072
:1023C0003511400051104000D00A402081114000DA
:1023D000E00A40209D2140003520400004ED00E04F
:1023E000C11340002D4B1B68002B2CD110B50022CF
:1023F0002B4B1A602B4B1B681B6B1A68B2F1A53F65
:1024000003D15A68B2F1A53F21D0264B186819684C
:102410003431254B9847254B1B68B3FA83F3DBB265
:10242000C3F11F0303EB8301214A52F82120BAB9FB
:102430004FF0800372B683F31188BFF36F8FBFF341
:102440004F8F62B6FEE70122154B1A6070479A68FB
:10245000B2F1A53FD9D1DB68B3F1A53FD5D1DAE719
:10246000134A9900C81802EB80004468646844600D
:10247000194402460832944209D003EB83030C4A04
:1024800002EB83035B68DA68064B1A6010BD606874
:10249000074A02EB81025060EFE700BFD80A4020F4
:1024A0005C0B4020600A4020B9304000E40A402024
:1024B0006C0A402038B5E0B10C46174D2968183138
:1024C000164B984728680430154B984740B92A683E
:1024D00014490B68D06A0122824023EA02030B6090
:1024E000B4F1FF3F10D0104B186820440F4B9847B1
:1024F00038BD4FF0800372B683F31188BFF36F8F3E
:10250000BFF34F8F62B6FEE7034B196804310848EA
:10251000084B984738BD00BF600A40201D1040009E
:1025200051104000E40A4020580B40201D1D40007F
:10253000300B402005104000E8B170B515460C4640
:10254000164E31681831164B984730680430154BD9
:10255000984740B9326814490B68D06A012282401A
:1025600023EA02030B60012D10D0104B18682044A1
:102570000F4B984770BD4FF0800372B683F31188FC
:10258000BFF36F8FBFF34F8F62B6FEE7034B19683F
:1025900004310848024B984770BD00BF600A4020D4
:1025A0000510400051104000E40A4020580B402024
:1025B0001D1D4000300B402038B5C368DC6824B3D3
:1025C00004F1180528461A4B98471A4B1B683BBB69
:1025D000251D2846164B9847E06A174A11680123C3
:1025E00083400B43136000EB80002946134B03EB41
:1025F0008000134B9847134B1B68E26ADB6A9A42D0
:1026000013D90120104B186038BD4FF0800372B60B
:1026100083F31188BFF36F8FBFF34F8F62B6FEE76E
:1026200029460A48064B9847E5E7002038BD00BF19
:1026300051104000D80A4020E40A40206C0A402093
:1026400005104000600A40205C0B4020180B402021
:1026500030B1094A12680260084A12684260704745
:102660004FF0800372B683F31188BFF36F8FBFF30F
:102670004F8F62B6FEE700BF140B4020580B40207E
:1026800038B5C0B1044609B30D461D4B98471D4BE4
:102690001A682B68B3F1FF3F2ED01B4909682068E8
:1026A000884202D061688A4228D26168501A834207
:1026B00017D801241CE04FF0800372B683F3118811
:1026C000BFF36F8FBFF34F8F62B6FEE74FF080030B
:1026D00072B683F31188BFF36F8FBFF34F8F62B66B
:1026E000FEE79B1A0B442B602046084B98470024BA
:1026F000074B9847204638BD0024F9E70124F7E747
:1027000035114000580B4020140B4020512640004A
:10271000811140000122014B1A6070475C0B402080
:10272000054B1B6833B1054B1B68002B0CBF022007
:1027300000207047012070472C0B4020D80A402011
:10274000002844D038B50446C26A21490968C96ADC
:102750008A4214D28169002905DB1D490968C96ACA
:10276000C1F10501816102EB82021A4901EB82028B
:102770006169914204D0164A1268D26AE26238BD99
:10278000251D2846144B984770B9E36A03EB830173
:10279000104A52F821203AB910480268012101FA82
:1027A00003F322EA03030360094B1B68D86AE06263
:1027B0000A4A1168012383400B43136000EB800039
:1027C0002946044B03EB8000054B984738BD704702
:1027D000600A40206C0A402051104000E40A40206A
:1027E0000510400000284DD038B50446274A12682D
:1027F00090420AD04FF0800372B683F31188BFF382
:102800006F8FBFF34F8F62B6FEE7C26C52B94FF0C5
:10281000800372B683F31188BFF36F8FBFF34F8FBE
:1028200062B6FEE7013AC264C06AA16C88422BD04E
:1028300052BB251D2846164B984768B9E16A01EB43
:102840008102144B53F8223033B913480368012234
:102850008A4023EA02030360A06CE062C0F1050332
:10286000A3610D4A1168012404FA00F30B431360BD
:1028700000EB80002946074B03EB8000074B98478D
:10288000204638BD00207047002038BD600A402037
:10289000511040006C0A4020E40A4020051040001E
:1028A000054B1B6823B1044B1A68D36C0133D36406
:1028B000014B1868704700BF600A402008B54160AE
:1028C000006191420CD8D21A83699A4201D3012047
:1028D00008BD011D094B1868094B9847002008BD29
:1028E0009A4203D2994201D3012008BD011D054B34
:1028F0001868034B9847002008BD00BF640B4020B8
:102900001D104000600B402070B5154B9847154BCB
:102910001B6813B1144B984770BD144D2846144ED4
:10292000B047144C2046B047134B1D60134B1C603E
:10293000002210210520124B98470A4B186018B14D
:102940001049114B9847E5E74FF0800372B683F3C7
:102950001188BFF36F8FBFF34F8F62B6FEE700BFE2
:1029600035114000940B402081114000680B40203D
:10297000E90F40007C0B4020600B4020640B40209E
:1029800055164000A06D4000651C400010B584B095
:102990000F4B98470F4B1B6873B1002303930293AF
:1029A0000193042200924FF482720B490B480C4CA5
:1029B000A04708B104B010BD4FF0800372B683F396
:1029C0001188BFF36F8FBFF34F8F62B6FEE700BF72
:1029D00009294000940B4020A86D40000D2B4000B9
:1029E000751D4000D8B130B585B015460446154A6E
:1029F000106820B31A46009101950294052919DC4C
:102A0000114B984702284FF000030CBF089A1A4652
:102A100069460C4800680D4CA04705B030BD4FF02A
:102A2000800372B683F31188BFF36F8FBFF34F8FAC
:102A300062B6FEE700236946054CA047EDE700209B
:102A4000EBE700BF940B402021274000D116400047
:102A5000B51840002DE9F04782B08046244B9847D6
:102A60000746244B1B6898421BD30023C8F800304C
:102A7000204B1F60384602B0BDE8F087002100916E
:102A80000B46524620461C4CA04760B94FF08003CD
:102A900072B683F31188BFF36F8FBFF34F8F62B6A7
:102AA000FEE7164D164E2B681A68C2B1DB68D3F8E4
:102AB00000A0DC6804F104094846B047636A204678
:102AC0009847E369012BEED1A36953449A45D5D2C7
:102AD00063602461494628680A4B9847E3E70A4A3D
:102AE00010680649086013600123C8F80030BFE78A
:102AF00045204000900B4020E5294000600B40201D
:102B0000511040001D104000640B40202DE9F0479B
:102B100088B0754E754FDFF8FC91DFF8FC813368A3
:102B20001A68002A00F0CE80DB681C68B84704A849
:102B30006F4B98470546049B002B44D1A04212D20C
:102B40000022611B6B4B18686B4B98476B4B984787
:102B500000283AD14FF08053C9F80030BFF34F8FAF
:102B6000BFF36F8F31E0654B98473368DB68D3F86C
:102B70000CA00AF10400C047DAF81C30012B04D085
:102B8000DAF82430504698471FE0DAF81810234648
:102B90002A46214450465A4DA8470128F0D1002129
:102BA00000910B4622465046564CA0470028E7D1DC
:102BB0004FF0800372B683F31188BFF36F8FBFF3BA
:102BC0004F8F62B6FEE74D4B98474A4D4E4C06E09C
:102BD00007990698059B9847049B002B09DA002368
:102BE0001A4604A92868A047002898D0049B002B07
:102BF000EEDBDDF818A0DAF8143013B10AF10400A6
:102C0000C04703A83A4B9847049B092BE7D801A279
:102C100052F823F03D2C40003D2C40003D2C40005C
:102C2000DF2B4000912C4000BD2C40003D2C40008B
:102C30003D2C4000DF2B4000912C4000059CDAF831
:102C4000181023460246214450462D4CA047012827
:102C5000BCD1DAF8243050469847DAF81C30012B02
:102C6000B4D1DAF81820002100910B4605980244EF
:102C70005046244CA0470028A8D14FF0800372B6DC
:102C800083F31188BFF36F8FBFF34F8F62B6FEE7F8
:102C90000599CAF8181031B103460246014450465E
:102CA000174CA04792E74FF0800372B683F3118868
:102CB000BFF36F8FBFF34F8F62B6FEE75046134BE3
:102CC000984783E7B84704A8094B98470546049BF3
:102CD000002B7FF478AF0E4B1B681A68B2FA82F2B1
:102CE000520900242DE700BF600B40203520400032
:102CF000552A4000940B4020991C40009D21400023
:102D0000BD284000E5294000951A4000C11340004D
:102D1000640B402004ED00E05110400010B582B07B
:102D20004FF400524FF020510F48104B9847B0B964
:102D300001210F480F4B984707EE900AF8EE676A9B
:102D40009FED0D7AC6EE877A02A961ED017A002324
:102D50001A460A4800680A4CA04702B010BD01217B
:102D60000348084B9847F8E700120E404907400017
:102D700000C00040DF0B40000000FA46B80C4020C5
:102D8000B5184000D70B400010B582B0064B0022AA
:102D90005A669B6E02A941F8043D13460348006839
:102DA000034CA04702B010BD00C00340C00C40203F
:102DB000B518400008B5054A1368013313600021B7
:102DC000034B1868034B984708BD00BF9C0B40207D
:102DD000BC0C4020B519400070B50C462A4B9842F7
:102DE00013D02A4B984219D0294B98421FD0294B17
:102DF000984225D0284B98422BD0284B984231D06E
:102E0000274B984237D0002070BD1E46254D2146E5
:102E10003046A8470028FAD1012070BD1E46214D3A
:102E200021463046A8470028FAD1012070BD1E4631
:102E30001C4D21463046A8470028FAD1012070BD1C
:102E40001E46184D21463046A8470028FAD10120D9
:102E500070BD1E46144D21463046A8470028FAD1C1
:102E6000012070BD1E46104D21463046A84700285F
:102E7000FAD1012070BD1E460B4D21463046A847B1
:102E80000028FAD1012070BD00080E40000A0E4053
:102E9000001A0E40001C0E4000400240008002401C
:102EA00000C00240FF0B4000090D4000F0B58BB0A0
:102EB000002204210A202B4B98472B4B18602B4CE7
:102EC00020462B4B984703A82A4B984703A9204636
:102ED000294B9847636823F08F0363600523274AD3
:102EE00000212046264DA8476846264B98470025D6
:102EF0008DF801506A4629462046234B984765665F
:102F00004FF40073E36601A8204B984701A92046BF
:102F10001F4B98470123636102232360124F1D4E0C
:102F20001D4D02E04FF47A70A84700234FF4FA6277
:102F300009A93868B0470028F4D06421099B01FB37
:102F400003F10029B8BF01F6FF710C134FF47A703A
:102F5000A8470222054B1A6021461048104B98479B
:102F6000E0E700BF55164000C00C402000C0034001
:102F7000DD0640000D0540005D054000892D400044
:102F80005D0640003D054000C90440004705400083
:102F9000F9044000951A4000BD224000F06D400049
:102FA0005D3E400008B5032200210120074B9847F1
:102FB000074B1860074E1D46074C4FF4FA70B04798
:102FC00000231A4619462868A047F6E75516400020
:102FD000AC0C4020BD224000D1164000F0B583B0BB
:102FE00005460C46002301932A4B984213D02A4BE6
:102FF000984218D0294B98421DD0294B9D4222D08F
:10300000284B9D4227D0284B9D422ED0274B9D42D6
:1030100035D003B0F0BD1F46254E21463846B04797
:103020000028FAD1E9E71F46214E21463846B0472D
:103030000028FAD1E4E71F461D4E21463846B04726
:103040000028FAD1DFE71F46194E21463846B0471F
:103050000028FAD1DAE71E46164D01A93046A847E6
:103060000028FAD1019B2370D3E71E46114D01A918
:103070003046A8470028FAD1019B2370C9E71E46B5
:103080000C4D01A93046A8470028FAD1019B2370B6
:10309000BFE700BF00080E40000A0E40001A0E40B5
:1030A000001C0E40004002400080024000C0024070
:1030B000110C40001F0D400008B50A4601460248A9
:1030C000024B9847FEE700BF3C6E40005D3E40006B
:1030D00070474FF0800372B683F31188BFF36F8F90
:1030E000BFF34F8F62B6FEE700B583B001210548FC
:1030F000054B98470190019B0122044B1A6003B0D5
:103100005DF804FB00C00040F70B4000980B402026
:1031100070B505460C46164608460F4B984744F2D4
:103120000402314628460D4B98474FF6FF72314650
:1031300028460B4B984763B25B0904F01F04012239
:1031400002FA04F4074A42F8234010223146284686
:10315000054B984770BD00BF690B4000BD0B400098
:10316000E70B400000E100E0EF0B400070B582B0DB
:103170001020244CA04700234FF080624FF04051B4
:103180002148224EB0470C20A047214D01234FF487
:1031900000524FF020512846B0470A20A0471D4C4E
:1031A000012310224FF020512046B0471A4B0093C4
:1031B00040234FF400520C212846184EB047184BBC
:1031C0000093402310220A212046B047154B4FF4AC
:1031D00080521A60A02283F80C234FF4806119609A
:1031E00083F80A234FF4005128460F4EB0471021B0
:1031F0002046B04728460D4DA8472046A84702B0B4
:1032000070BD00BF690B400000140E40550840001F
:1032100000120E40000E0E401D2D400075094000AA
:10322000B52D400000E100E0170940001B094000F7
:103230002DE9F047032200210120274CA047274B0E
:103240001860032200210120A047254B1860254B60
:103250009847DFF88890244DDFF884801AA7D7E9D3
:10326000006706E000212148214CA0475146214833
:10327000A0474FF0000A5446234632222146D9F88F
:103280000000A847012808BF0AF1010A23460522C9
:103290002146D8F80000A8470128EDD1BAF1100F57
:1032A000E0DD5046144B984732463B46134CA0474E
:1032B00007A3D3E90023124CA047124B98470146BD
:1032C000D1E700BFAFF30080107A36AB3E171D4048
:1032D00048DC63E943170D4055164000BC0C402004
:1032E000AC0C40206D314000951A4000186E400033
:1032F0005D3E40002C6E40002D384000F938400003
:10330000953540001D3D400010B5084C4FF08061E0
:103310002046074B98474FF4FD70064B98474FF0F7
:1033200080612046044B984710BD00BF00140E403A
:103330004107400001004020450740002DE9D046EC
:103340002DED048B82B0032200210120214CA047E7
:10335000214B1860002204210120A0471F4B186058
:103360002A23012218211E481E4CA047DFF8A8A0DE
:10337000DFF8689000261C4F9FED1C9ADFED1C8A39
:1033800002E064201B4B9847D0470023642201A928
:10339000D9F80000184CA0470128F2D10198174B2A
:1033A0009847174C32463B46A0470022154BA04792
:1033B000154B984707EE900A27EE898A38EEC88A9F
:1033C000BDEEC88A1148124CA04718EE101A1148D9
:1033D000A047D6E755164000C40C4020B80C40204A
:1033E00000C0004011314000004075400000C8425C
:1033F00000006043BD224000951A40005138400053
:10340000F93840000000E03F6D3D4000FC6D400099
:103410005D3E4000006E40000933400000B58BB0B7
:103420003D4B98473D4B98474FF400423C4B5A6008
:103430003C4D3D4B1D603D4A3D4B1A603D4A3E4B65
:103440001A604FF4E1330493C02305934FF40063F3
:1034500006930024079408940E20384B9847384A66
:1034600004A92846374B98472846374B98472846A3
:10347000364B9847364E336821469868354DA847F5
:10348000336821465868A847336821469868A8479A
:10349000039402940194009423464FF400722E4941
:1034A0002E482F4CA047012802D02E482E4B98477B
:1034B000002303930293019300934FF400722B496E
:1034C0002B48274CA047012802D02648264B984776
:1034D000002303930293019300934FF40072254954
:1034E00025481F4CA047012802D01E481E4B984774
:1034F000002303930293019300934FF400721F493A
:103500001F48174CA047012802D01648164B984771
:103510001C4B9847FEE700BFAD014000A9024000E8
:1035200050180E4000800240E40B4020D92D40008E
:10353000E00B4020DD2F4000DC0B4020690B4000F9
:1035400080D1F008A90C4000FD0C4000030D4000A4
:103550001400402011464000B06D40003D33400053
:10356000751D4000B86D40005D3E4000D86D4000C4
:1035700031324000E06D4000A52F4000E86D400072
:10358000AD2E4000A91F400081F0004102E000BFC5
:1035900083F0004330B54FEA41044FEA430594EA13
:1035A000050F08BF90EA020F1FBF54EA000C55EA4E
:1035B000020C7FEA645C7FEA655C00F0E2804FEA1F
:1035C0005454D4EB5555B8BF6D420CDD2C4480EA01
:1035D000020281EA030382EA000083EA010180EA31
:1035E000020281EA0303362D88BF30BD11F0004F7F
:1035F0004FEA01314FF4801C4CEA113102D04042B5
:1036000061EB410113F0004F4FEA03334CEA1333EF
:1036100002D0524263EB430394EA050F00F0A78007
:10362000A4F10104D5F1200E0DDB02FA0EFC22FA02
:1036300005F2801841F1000103FA0EF2801843FAF6
:1036400005F359410EE0A5F120050EF1200E012AE7
:1036500003FA0EFC28BF4CF0020C43FA05F3C01825
:1036600051EBE37101F0004507D54FF0000EDCF19E
:10367000000C7EEB00006EEB0101B1F5801F1BD347
:10368000B1F5001F0CD349085FEA30004FEA3C0C4B
:1036900004F101044FEA445212F5800F80F09A8041
:1036A000BCF1004F08BF5FEA500C50F1000041EB45
:1036B000045141EA050130BD5FEA4C0C404141EB49
:1036C000010111F4801FA4F10104E9D191F0000F70
:1036D00004BF01460020B1FA81F308BF2033A3F1F3
:1036E0000B03B3F120020CDA0C3208DD02F1140CEA
:1036F000C2F10C0201FA0CF021FA02F10CE002F125
:103700001402D8BFC2F1200C01FA02F120FA0CFC1D
:10371000DCBF41EA0C019040E41AA2BF01EB045166
:10372000294330BD6FEA04041F3C1CDA0C340EDC64
:1037300004F11404C4F1200220FA04F001FA02F3A7
:1037400040EA030021FA04F345EA030130BDC4F165
:103750000C04C4F1200220FA02F001FA04F340EA5A
:103760000300294630BD21FA04F0294630BD94F00B
:10377000000F83F4801306BF81F480110134013DF2
:103780004EE77FEA645C18BF7FEA655C29D094EA63
:10379000050F08BF90EA020F05D054EA000C04BFE1
:1037A0001946104630BD91EA030F1EBF00210020CC
:1037B00030BD5FEA545C05D14000494128BF41F06B
:1037C000004130BD14F580043CBF01F5801130BDCF
:1037D00001F0004545F0FE4141F470014FF000005A
:1037E00030BD7FEA645C1ABF194610467FEA655C0B
:1037F0001CBF0B46024650EA013406BF52EA0335AD
:1038000091EA030F41F4002130BD00BF90F0000F9A
:1038100004BF0021704730B54FF4806404F13204D6
:103820004FF000054FF0000150E700BF90F0000F8F
:1038300004BF0021704730B54FF4806404F13204B6
:1038400010F0004548BF40424FF000013EE700BF86
:1038500042004FEAE2014FEA31014FEA02701FBF16
:1038600012F07F4393F07F4F81F06051704792F0E8
:10387000000F14BF93F07F4F704730B54FF4607462
:1038800001F0004521F0004120E700BF50EA0102AD
:1038900008BF704730B54FF000050AE050EA01025A
:1038A00008BF704730B511F0004502D5404261EBCA
:1038B00041014FF4806404F132045FEA915C3FF40B
:1038C000DCAE4FF003025FEADC0C18BF03325FEAA4
:1038D000DC0C18BF033202EBDC02C2F1200300FA59
:1038E00003FC20FA02F001FA03FE40EA0E0021FA7E
:1038F00002F11444C1E600BF70B54FF0FF0C4CF468
:10390000E06C1CEA11541DBF1CEA135594EA0C0F1D
:1039100095EA0C0F00F0DEF82C4481EA030621EA58
:103920004C5123EA4C5350EA013518BF52EA033593
:1039300041F4801143F4801338D0A0FB02CE4FF045
:103940000005E1FB02E506F00042E0FB03E54FF075
:103950000006E1FB03569CF0000F18BF4EF0010E6D
:10396000A4F1FF04B6F5007F64F5407404D25FEA69
:103970004E0E6D4146EB060642EAC62141EA55511C
:103980004FEAC52040EA5E504FEACE2EB4F1FD0C5E
:1039900088BFBCF5E06F1ED8BEF1004F08BF5FEADC
:1039A000500E50F1000041EB045170BD06F000468E
:1039B00046EA010140EA020081EA0301B4EB5C043B
:1039C000C2BFD4EB0C0541EA045170BD41F4801133
:1039D0004FF0000E013C00F3AB8014F1360FDEBF58
:1039E000002001F0004170BDC4F10004203C35DA34
:1039F0000C341BDC04F11404C4F1200500FA05F3B7
:103A000020FA04F001FA05F240EA020001F0004257
:103A100021F0004110EBD37021FA04F642EB0601CD
:103A20005EEA430E08BF20EAD37070BDC4F10C04F7
:103A3000C4F1200500FA04F320FA05F001FA04F2BB
:103A400040EA020001F0004110EBD37041F10001A7
:103A50005EEA430E08BF20EAD37070BDC4F12005B2
:103A600000FA05F24EEA020E20FA04F301FA05F21A
:103A700043EA020321FA04F001F0004121FA04F2C2
:103A800020EA020000EBD3705EEA430E08BF20EA92
:103A9000D37070BD94F0000F0FD101F000464000CC
:103AA00041EB010111F4801F08BF013CF7D041EA4E
:103AB000060195F0000F18BF704703F00046520052
:103AC00043EB030313F4801F08BF013DF7D043EA23
:103AD0000603704794EA0C0F0CEA135518BF95EAD9
:103AE0000C0F0CD050EA410618BF52EA4306D1D160
:103AF00081EA030101F000414FF0000070BD50EA7F
:103B0000410606BF1046194652EA430619D094EA08
:103B10000C0F02D150EA013613D195EA0C0F05D1F2
:103B200052EA03361CBF104619460AD181EA030146
:103B300001F0004141F0FE4141F470014FF00000FE
:103B400070BD41F0FE4141F4780170BD70B54FF099
:103B5000FF0C4CF4E06C1CEA11541DBF1CEA135519
:103B600094EA0C0F95EA0C0F00F0A7F8A4EB0504FB
:103B700081EA030E52EA03354FEA013100F08880F2
:103B80004FEA03334FF0805545EA131343EA1263BB
:103B90004FEA022245EA111545EA10654FEA002670
:103BA0000EF000419D4208BF964244F1FD0404F529
:103BB000407402D25B084FEA3202B61A65EB030585
:103BC0005B084FEA32024FF480104FF4002CB6EB42
:103BD000020E75EB030E22BFB61A754640EA0C00C2
:103BE0005B084FEA3202B6EB020E75EB030E22BF02
:103BF000B61A754640EA5C005B084FEA3202B6EB43
:103C0000020E75EB030E22BFB61A754640EA9C0001
:103C10005B084FEA3202B6EB020E75EB030E22BFD1
:103C2000B61A754640EADC0055EA060E18D04FEA8F
:103C3000051545EA16754FEA06164FEAC30343EA2F
:103C400052734FEAC2025FEA1C1CC0D111F4801FFC
:103C50000BD141EA00014FF000004FF0004CB6E7F5
:103C600011F4801F04BF01430020B4F1FD0C88BF94
:103C7000BCF5E06F3FF6AFAEB5EB030C04BFB6EB9F
:103C8000020C5FEA500C50F1000041EB045170BD92
:103C90000EF0004E4EEA113114EB5C04C2BFD4EBBF
:103CA0000C0541EA045170BD41F480114FF0000E43
:103CB000013C90E645EA060E8DE60CEA135594EABF
:103CC0000C0F08BF95EA0C0F3FF43BAF94EA0C0FC2
:103CD0000AD150EA01347FF434AF95EA0C0F7FF437
:103CE00025AF104619462CE795EA0C0F06D152EA8B
:103CF00003353FF4FDAE1046194622E750EA41066F
:103D000018BF52EA43067FF4C5AE50EA41047FF47F
:103D10000DAF52EA43057FF4EBAE12E74FEA4102E2
:103D200012F5001215D211D56FF47873B3EB62520D
:103D300012D94FEAC12343F0004343EA505311F034
:103D4000004F23FA02F018BF404270474FF00000C6
:103D5000704750EA013005D111F0004008BF6FF004
:103D6000004070474FF00000704700BF4FEA41022B
:103D7000B2F1E04324BFB3F5001CDCF1FE5C0DD9C9
:103D800001F0004C4FEAC0024CEA5070B2F1004F13
:103D900040EB830008BF20F00100704711F0804F16
:103DA00021D113F13872BCBF01F00040704741F4DB
:103DB00080114FEA5252C2F11802C2F1200C10FADF
:103DC0000CF320FA02F018BF40F001004FEAC123C3
:103DD0004FEAD32303FA0CFC40EA0C0023FA02F367
:103DE0004FEA4303CCE77FEA625307D150EA01333D
:103DF0001EBF4FF0FE4040F44000704701F000400D
:103E000040F0FE4040F40000704700BF70B50F4E18
:103E10000F4D761BB61018BF002405D0013455F89D
:103E2000043B9847A642F9D10A4E0B4D761B03F08E
:103E3000C5F8B61018BF002406D0013455F8043B6D
:103E40009847A642F9D170BD70BD00BFC86F400051
:103E5000C86F4000D06F4000C86F40000FB400B57D
:103E6000074983B004AB086853F8042B81680193B9
:103E700000F054FD03B05DF804EB04B0704700BFE0
:103E800014004020024B0146186800F00BB800BF38
:103E900014004020024B0146186801F05BBE00BFD1
:103EA000140040202DE9F04F01F10B06162E83B0CF
:103EB000054640F29E8036F0070600F1BD80B14213
:103EC00000F2BA8000F086FBB6F5FC7FC0F093826A
:103ED000730A00F0B880042B00F27981B30903F172
:103EE000390003F1380EC300BF4F3B44A3F1080172
:103EF0005C68A14206D10CE0002A80F2AA80E46846
:103F0000A14206D0636823F003039A1B0F2AF3DD56
:103F100070463C69DFF8E4E2744500F0AB81636809
:103F200023F003039A1B0F2A00F39081002AC7F89D
:103F300014E0C7F810E080F29D80B3F5007F80F0B8
:103F40006181DB0803F1010C99107A6857F83C8015
:103F5000C4F8088001238B4007EBCC0113430839D8
:103F6000E1607B6047F83C40C8F80C4082100124B7
:103F700094409C4200F28B801C4206D120F003004A
:103F800064001C4200F10400FAD007EBC009CC46E3
:103F90008046DCF80C309C4507D16DE1002A80F2A8
:103FA0007B81DB689C4500F06781596821F0030143
:103FB0008A1B0F2AF2DDD3F80CC0D3F808800093D7
:103FC0009C19284646F0010642F001055E60C8F8DB
:103FD0000CC0CCF808807C613C61C4F80CE0C4F8EB
:103FE00008E065605A5000F0FBFA009B03F10804FA
:103FF0001EE0102920D800F0EDFA10261823022028
:10400000794F3B44A3F108025C68944200F03D8183
:104010006368E168A66823F00303234428465A68CE
:10402000F16042F001028E605A6000F0D9FA083463
:10403000204603B0BDE8F08F00240C2320462B60FF
:1040400003B0BDE8F08F40204FF400734FF03F0EF7
:104050004AE72344E1685A68A66842F00102F16029
:1040600028468E605A6000F0BBFA0834204603B040
:10407000BDE8F08F234428465A6842F001025A6096
:1040800000F0AEFA0834204603B0BDE8F08FBC68FB
:10409000636823F00308B04504D3A8EB06030F2B95
:1040A00000F38580DFF85891504BD9F800201B6849
:1040B0000132334404EB080A00F0558103F58053C4
:1040C0000F3323F47F6B2BF00F0B5946284600F07B
:1040D0008DFA411C024600F0FC80824500F2F78018
:1040E000434B19685944196000F04D81D9F800001C
:1040F00001301BBFA2EB0A0A5144C9F80020196025
:1041000012F0070100F01581C1F10800C1F58051DE
:104110000244083102EB0B09C9F30B09A1EB0909B1
:10412000494628460193009200F060FA431C9DE83E
:104130000C0000F04381801A484440F001001968E7
:10414000BA604944BC425060196017D0B8F10F0FF3
:1041500040F2FB806068A8F10C0222F0070204EB39
:10416000020E00F001004FF0050C10430F2A6060B2
:10417000CEF804C0CEF808C000F217811D4BBC6811
:104180001A68914288BF19601B4B1A689142626895
:1041900088BF196022F003029642A2EB060301D801
:1041A0000F2B04DC284600F01BFA002440E7A2197C
:1041B00043F0010346F0010666602846BA6053608A
:1041C00000F00EFA0834204603B0BDE8F08F142B3F
:1041D00071D9542B00F2A380330B03F16F0003F16C
:1041E0006E0EC30080E600BF40044020D00B40208C
:1041F000A00B4020C80B4020CC0B4020480440209E
:10420000480840205A0A042A5BD9142A00F2AE80DA
:1042100002F15C01C9005B3207EB010C7958ACF18B
:10422000080C8C4500F088804A6822F00302934213
:1042300073D289688C45F7D1DCF80C207B68E2608A
:10424000C4F808C09460CCF80C408FE6A11946F081
:10425000010C42F00106C4F804C0284679613961B6
:10426000C1F80CE0C1F808E04E60E25000F0B8F987
:104270000834DDE67B6879E608F1010818F0030FE1
:104280000CF1080C7FF485AE2DE0DC68A34208BF7A
:1042900002303FF43EAEBBE619441C464A68DB6878
:1042A00054F8086F42F001024A602846F3609E60AD
:1042B00000F096F9BCE603F15C0003F15B0EC3006D
:1042C00012E69A0902F13901C9003832A4E7BC426A
:1042D00054D0BC68626822F003025DE759F80839DF
:1042E000994540F0868010F0030F00F1FF30F5D1C2
:1042F0007B6823EA04037B6064009C423FF6C7AE00
:10430000002C3FF4C4AE1C4240467FF43EAE640035
:104310001C4200F10400FAD037E68C468CE7B3F576
:10432000AA7F15D8F30B03F1780003F1770EC300D1
:10433000DAE54FF48051EDE67B689210012101FA35
:1043400002F213437B60624679E70123536029E759
:1043500040F25452934222D8B30C03F17D0003F192
:104360007C0EC300C0E503F1100BAEE6542A29D839
:104370001A0B02F16F01C9006E324DE7204B19682C
:1043800059441960B2E6CAF30B0000287FF4AEAEC0
:1043900008EB0B03BA6843F001035360EEE67F209D
:1043A0004FF47E734FF07E0E9EE504F1080128461F
:1043B000009301F0CFFB009B1968DFE601204FF06E
:1043C0000009BCE6B2F5AA7F05D8DA0B02F1780144
:1043D000C900773220E740F254518A4205D89A0C3E
:1043E00002F17D01C9007C3216E74FF47E717E2216
:1043F00012E77B6880E7F00806F1080300E600BFDB
:10440000A00B4020844641EA000313F003036DD162
:10441000403A41D351F8043B40F8043B51F8043B87
:1044200040F8043B51F8043B40F8043B51F8043B8E
:1044300040F8043B51F8043B40F8043B51F8043B7E
:1044400040F8043B51F8043B40F8043B51F8043B6E
:1044500040F8043B51F8043B40F8043B51F8043B5E
:1044600040F8043B51F8043B40F8043B51F8043B4E
:1044700040F8043B51F8043B40F8043B51F8043B3E
:1044800040F8043B51F8043B40F8043B51F8043B2E
:1044900040F8043B403ABDD2303211D351F8043BCE
:1044A00040F8043B51F8043B40F8043B51F8043B0E
:1044B00040F8043B51F8043B40F8043B103AEDD27D
:1044C0000C3205D351F8043B40F8043B043AF9D2CE
:1044D000043208D0D2071CBF11F8013B00F8013BA1
:1044E00001D30B8803806046704700BF082A13D3AE
:1044F0008B078DD010F003038AD0C3F10403D21AC6
:10450000DB071CBF11F8013B00F8013B80D331F8F9
:10451000023B20F8023B7BE7043AD9D3013A11F879
:10452000013B00F8013BF9D20B7803704B784370E4
:104530008B7883706046704770B4860746D0541EEF
:10454000002A41D0CAB2034602E014F1FF343BD343
:1045500003F8012B9D07F8D1032C2ED9CDB245EAE3
:1045600005250F2C45EA054519D903F11002264609
:10457000103E0F2E42F8105C42F80C5C42F8085CCA
:1045800042F8045C02F11002F2D8A4F1100222F009
:104590000F0204F00F041032032C13440DD91E46F1
:1045A0002246043A032A46F8045BFAD8221F22F076
:1045B00003020432134404F003042CB1C9B21C44B6
:1045C00003F8011B9C42FBD170BC704714460346A4
:1045D000C2E700BF014801F057BD00BFD80C402022
:1045E000014801F053BD00BFD80C402038B5074C3E
:1045F0000023054608462360FCF7CEFC431C00D090
:1046000038BD2368002BFBD02B6038BDEC0C40205C
:1046100000290CBF022200224FF4806300F000B892
:104620002DE9F043614C256883B004460F4690465F
:104630001E4615B1AB6B002B64D0B8F1020F06D04B
:10464000B8F1010F00F29F80002EC0F29C80636ED3
:10465000D80734D52146284601F0FEF8216B41B138
:1046600004F14003994202D0284601F073FA002376
:104670002363B4F90C300022A26162601A063AD4B6
:1046800023F44A6323F00303B8F1020FA3811DD082
:1046900001AB6A462146284601F0FAFCA38918437B
:1046A000A081002E32D1009E3046FFF7EBFB07467B
:1046B00000286BD0A38943F08003A38128E0A3895D
:1046C0009905C7D4A06D01F0DFFCC3E70025616E3A
:1046D000002604F1430243F002030120A660CE0746
:1046E000A38122602261606101D498053ED52846ED
:1046F00003B0BDE8F0832169284601F02BFAB4F934
:104700000C30BDE7284601F0FFF896E7002FCBD02C
:10471000AB6B002B33D0009BB4F90C2027609E427A
:104720001CBF42F40062A281B8F1010F04BF42F045
:104730000102A28192B212F00803276166610ED0D5
:10474000D1071AD5656E7642002315F00105A661E2
:10475000A36009D00025284603B0BDE8F083A3601C
:10476000656E15F00105F5D19305C0D4A06D01F07B
:104770008DFC284603B0BDE8F083A660F0E728462C
:1047800001F0C2F8C7E74FF0FF35B0E7DDF8009061
:10479000B14504D04846FFF775FB074620B9B4F988
:1047A0000C304FF0FF3592E74E4683E7140040206F
:1047B00000000000000000000000000000000000F9
:1047C00090F800F06DE9024520F007016FF0000C51
:1047D00010F0070491F820F040F049804FF00004F9
:1047E0006FF00700D1E9002391F840F000F10800D4
:1047F00082FA4CF2A4FA8CF283FA4CF3A2FA8CF30C
:104800004BBBD1E9022382FA4CF200F10800A4FA72
:104810008CF283FA4CF3A2FA8CF3E3B9D1E90423C6
:1048200082FA4CF200F10800A4FA8CF283FA4CF3FD
:10483000A2FA8CF37BB9D1E9062301F1200182FAB7
:104840004CF200F10800A4FA8CF283FA4CF3A2FABD
:104850008CF3002BC6D0002A04BF04301A4612BACB
:10486000B2FA82F2FDE8024500EBD2007047D1E9CE
:10487000002304F00305C4F100004FEAC50514F05D
:10488000040F91F840F00CFA05F562EA05021CBF2E
:1048900063EA050362464FF00004A9E72DE9F84FEB
:1048A0004B6E9C0493462FD59368126853B30E4603
:1048B000074602F1080919E920045FEA9A0817D0AF
:1048C000043D002401E0A04510D0324655F8041FF5
:1048D000384601F0BBF8431C04F10104F3D1002376
:1048E000CBF80830CBF80430BDE8F88FDBF808309F
:1048F0002AF0030AA3EB0A03CBF8083009F10809F0
:10490000002BD8D10020EAE701F00AFA0023CBF807
:104910000830CBF80430BDE8F88F00BF2DE9F04F28
:10492000ADB01D468B4690460793069018B1836B39
:10493000002B00F0F380DBF86430BBF90C00DF07DC
:1049400081B202D48E0540F1FC808C040AD4DBF8DD
:10495000643040F4005123F40053ABF80C10CBF852
:10496000643089B2080740F1B380DBF81030002BC7
:1049700000F0AE8001F01A030A2B00F0B58000238E
:104980000DF170090B93119310930393CDF83C90A4
:10499000CA46CDF810B098F800304446FBB1252B3C
:1049A00002D11CE0252B03D014F8013F002BF9D1D4
:1049B000A4EB08059DB1109B119ACAF80080013341
:1049C0002A44072BCAF80450119210937ADD002A6A
:1049D00040F0B084039B10922B44CA460393237883
:1049E000002B00F0E08300204FF000038DF83730FB
:1049F00004F1010862780546064603464FF0FF348D
:104A000008F10108A2F12001582900F2DE82DFE856
:104A100011F02102DC02DC022902DC02DC02DC02F1
:104A2000DC02DC02DC0289029502DC02A200BD028B
:104A3000DC029F01A401A401A401A401A401A4011A
:104A4000A401A401A401DC02DC02DC02DC02DC0221
:104A5000DC02DC02DC02DC02DC02B201DC02DC0291
:104A6000DC02DC02DC02DC02DC02DC02DC02DC0256
:104A70009701DC02DC02DC02DC02DC029B01DC02CE
:104A8000DC025302DC02DC02DC02DC02DC02DC02BF
:104A9000DC02DC02DC02DC025A021B02DC02DC0269
:104AA000DC026E021B02DC02DC027302DC02F50196
:104AB00082010902D702DC029A02DC02A700DC02B2
:104AC000DC022E020AF1080A039B2B44039386E7BB
:104AD0005946069800F0ACFD18BBBBF80C1001F06D
:104AE0001A030A2B7FF44BAFBBF90E30002BFFF6F5
:104AF00046AFDBF86430DB0705D48F0503D4DBF861
:104B0000580001F0C3FA2B4642465946069800F079
:104B10004DFD039003982DB0BDE8F08F00F0F4FE3A
:104B200009E7DBF86430D90704D4BBF80C309A05E8
:104B300040F1AA844FF0FF33039303982DB0BDE8F2
:104B4000F08FDBF8580001F09FFABBF90C0081B23E
:104B5000FBE67642079243F0040398F800204FE703
:104B600008969E0600F150840799DD060A4600F17A
:104B7000EF83580640F1EC830E88043100270122B0
:104B800007914FF000018DF837100025611C00F0EF
:104B9000168123F08001029156EA070140F014814A
:104BA000002C40F05C83002A40F0B78313F001032F
:104BB000059300F057840DF1B00B30230BF8413D05
:104BC000059BA342B8BF234601930DB10133019366
:104BD000029B13F00203099302D0019B023301935D
:104BE000029B13F084030A9340F01782089B019AFA
:104BF0009D1A002D40F31182102D40F39084109BDC
:104C0000119AC44ED6461027A2461946069C07E0C4
:104C100001F1020C0EF1080E0146103D102D11DDC0
:104C2000481C1032072811928EE8C0001090EFDD6A
:104C3000002A40F0E481103D102D11464FF0010C88
:104C4000CE46EDDC54466146F2462A4407291192CD
:104C5000CAF80060CAF80450109100F3EC829DF885
:104C600037500AF1080A481C002D40F0DE81099BEC
:104C7000002B00F0F88102320EA9022307281192BE
:104C800010908AE80A0040F3EA81002A40F08C8301
:104C90000A9B802B4FF001001146CA4640F0E78185
:104CA000089B019D5E1B002E40F3E181102E9A4D62
:104CB00040F35084D4461027A246069C07E001F139
:104CC000020E0CF1080C0146103E102E11DD481C9E
:104CD0001032072811928CE8A0001090EFDD002A16
:104CE00040F09D82103E102E4FF0010E1146CC4632
:104CF000EDDC5446E2463244BEF1070F11928AE8D9
:104D00006000CDF840E000F369830AF1080A0EF173
:104D100001007146ABE1089613F0200240F08C834D
:104D200013F0100140F01A8313F0400200F01683D4
:104D300007980A460146043106880791002720E7B4
:104D4000089643F01003E7E7089643F0100308E7DE
:104D500043F0800398F8002052E6A2F130010026CB
:104D600018F8012B06EB860601EB4606A2F130018E
:104D70000929F5D946E60896002840F0088443F052
:104D800010039E0600F14C83DD0600F1F382580605
:104D900040F1F082079DB5F900602A46F71704320A
:104DA000304639460792002871F10002C0F25D8357
:104DB000611C9DF837504FF001027FF4EAAE56EACD
:104DC000070100F04D820293012A00F08C82022A32
:104DD00040F05C820B98CB46330906F00F0143EAA2
:104DE00007733A091E461746435C0BF8013D56EA25
:104DF0000703F1D1A9EB0B030593E1E6002840F08E
:104E0000C083990600F16783DA0600F1F1805B0642
:104E100040F1EE80079A136804320792BDF80C2027
:104E20001A80B8E507983D4A08960B9206687822E2
:104E3000302104308DF8392043F002030790002719
:104E40008DF8381002229CE60896002899D08DF83B
:104E5000375096E798F80020002D7FF4D1AD01205F
:104E60002025CDE543F0010398F80020C8E5089619
:104E7000002840F0938329490B919F0600F1E882B6
:104E80000798DE06014600F170825D0640F16D82F2
:104E90000431068807910027D80740F1228256EA9C
:104EA000070100F01E8230218DF8392043F0020303
:104EB0008DF83810022264E60896002840F06B83D3
:104EC00017490B91D9E7079908960A688DF8482089
:104ED0004FF000000A468DF837000432012001909F
:104EE000079205900DF1480B0293002470E643F001
:104EF000400398F8002083E598F800206C2A03BF4F
:104F000098F8012043F0200308F1010843F0100352
:104F100076E500BF886E4000986E40006C6E4000E1
:104F2000586E400007990E680A46002E02F10402EE
:104F3000FFF60FAE079298F8002061E598F8002080
:104F400001202B255CE507990896D1F800B04FF0B9
:104F500000028DF837200E1DBBF1000F00F0E58236
:104F6000671C00F0C482224600215846019301F0DC
:104F70001FF9019B002800F0E582A0EB0B020592CF
:104F8000079602939DF83750002419E698F8002000
:104F90002A2A08F1010700F0E982A2F1300109296B
:104FA000B8464FF000043FF62DAD18F8012B04EB86
:104FB000840401EB4404A2F130010929F5D921E56B
:104FC00043F0200398F800201AE50896002840F0E6
:104FD000DB82002A00F0E78001218DF848204FF0A5
:104FE000000201918DF8372005910DF1480B7BE708
:104FF000079A136804320792039A1A60CBE40FAA47
:1050000004992046FFF74AFC002840F039811099A6
:10501000119A01F1010CCE46FFE51099119A481C36
:105020009DF83750002D3FF422AE01320DF13705C7
:105030000121072811921090CAF80050CAF80410F4
:1050400040F30881002A40F0BC81099B002B3FF40B
:105050001FAE0EAB022208461C931D92CA460146A3
:105060000AF1080A01300A9B802B3FF419AE059B18
:10507000E41A002C2EDD102CB34D1EDDD646102672
:10508000069FDDF810A006E0881C0EF1080E1946F8
:10509000103C102C10DD4B1C1032072B11928EE8A7
:1050A00060001093F0DD002A65D1103C102C4FF009
:1050B00001001146CE46EEDCF2462244072811924A
:1050C000CAF80050CAF80440109000F385800AF135
:1050D000080A01300599CAF800B00A44072811925D
:1050E000CAF80410109040F38280002A40F0188122
:1050F000029B1092580735D5089B01995C1A002C29
:1051000040F3E780CA46102C40F3188210998F4E66
:10511000069FDDF810B0102506E0881C0AF1080A89
:105120001946103C102C11DD4B1C1032072B11922C
:10513000CAF80060CAF804501093EEDD42BB103C80
:10514000102C4FF001001146CA46EDDC224407281E
:105150001192CAF80060CAF80440109051DD002A8C
:1051600040F09B81039B089A01998A42ACBF9B182F
:105170005B1803934EE00FAA51463846FFF78EFBAB
:10518000002840F03F811099119A481CCE467FE7D5
:105190000FAA59463846FFF781FB60B91099119A5A
:1051A000481CCA46BDE7119BDDF810B0002B40F04B
:1051B000D48100231093DBF8643013F0010FBBF8A7
:1051C0000C3002D19A0540F1DE805B063FF5B2ACAF
:1051D00003982DB0BDE8F08F002A40F00681059AB3
:1051E0001D9201231192CDF870B01093CA460AF1B6
:1051F000080A029B590704D5089B01995C1A002CE8
:1052000081DC039B089901988142ACBF5B181B1895
:10521000039372BB00231093CA46FFF7BCBB0FAACF
:1052200004992046FFF73AFB50BB1099119A01F1FF
:10523000010ECC4648E5002A40F040819DF8371029
:10524000002900F01B8101220DF1370110461D924B
:105250001C91CA4601460AF1080A013007E5029B83
:10526000012A00F09880022A0DD10293002600271F
:10527000B0E50FAA04990698FFF710FB0028C9D0E3
:10528000DDF810B097E7029300260027494600E0BA
:105290005946F20842EA4772F80806F00703074643
:1052A0001646303356EA070201F8013C01F1FF3B94
:1052B000EED1029AD6077FF59DAD302B3FF49AAD23
:1052C000023930230BF8013CA9EB010305938B460F
:1052D00076E4039B089A8A42ACBF9B185B18039341
:1052E00098E702224DE4002F08BF0A2E52D3CB4686
:1052F000304639460A22002301F0C6FB30320BF853
:10530000012D3046394600230A2201F0BDFB064636
:105310000F4656EA0703EBD16CE50594CB464FE404
:105320000FAA04990698FFF7B9FA0028A8D1119A94
:10533000CA465EE70FAA04990698FFF7AFFA00285D
:105340009ED1CA46FFF7C0BB986E4000886E4000F1
:105350000431166807910122002712E407980146DC
:1053600004310668079100270BE40E6804310791A9
:10537000002791E507990E680A46F717043207924D
:10538000304639460FE5DBF8580000F07FFEBBF8E9
:105390000C301AE7029B02930DF1B00B303601235B
:1053A0000BF8416D05930BE40FAA04990698FFF7DB
:1053B00075FA00287FF464AF1099119A481CCA4608
:1053C00051E60FAA04990698FFF768FA00287FF4BF
:1053D00057AF1099119A481CCA4648E4002A40F079
:1053E000918001201146CA4641E60FAA0499069809
:1053F000FFF754FA00287FF443AF1098119A013058
:10540000CA4667E6D346D6E6079E073626F0070269
:1054100002F10801D2E9006707910122FFF7B1BB51
:10542000079E073626F00706D6E9000106F10802B6
:10543000079206460F46B6E4079E073626F0070297
:1054400002F10801D2E9006707910022FFF799BB3A
:10545000079E073626F0070101F108000790D1E901
:10546000006719E5CB46FFF7ABBB2D25764267EB0E
:1054700047078DF837500122FFF788BB099BB3B966
:1054800011460120CA46F2E5DBF8580000F0FEFDA7
:105490004FF0FF330393FFF750BB0FAA0499069810
:1054A000FFF7FCF900287FF4EBAE119AA9E60EABEA
:1054B00002221C931D920120CA46D0E50FAA04992E
:1054C0000698FFF7EBF900287FF4DAAE1099119AED
:1054D000481CCA46A4E5079A03991368CD170846E5
:1054E000043229460792C3E90001FFF754BA58462F
:1054F00007960293FFF764F9002405909DF8375052
:10550000FFF75EBB0FAA04990698FFF7C7F90028BA
:105510007FF4B6AE1099119A481CCA46A7E51099B7
:10552000119A204E0131FFF790BB062C28BF0624AC
:10553000059407960194DFF870B0D5E41098194EE1
:10554000013003E605949DF8375007960293044610
:10555000FFF736BB8646FFF7CEBB06980FAA594623
:10556000FFF79CF900283FF424AE24E6079998F849
:1055700001200C68043144EAE474B8460791FFF74F
:105580003FBA8DF837503CE48DF8375021E58DF85F
:105590003750FFF7F4BB8DF8375091E48DF8375052
:1055A00069E400BF886E4000806E40002DE9F04144
:1055B0000C46ADF58D6D8989666EE589199621F0E9
:1055C00002010646E069ADF80C1017464FF4806101
:1055D000626AADF80E5098461AAD0023079016A8DF
:1055E00009920693009504950291059100F048FDFB
:1055F00043463A4669463046FFF790F9051E07DBF9
:105600003046694600F028F9002818BF4FF0FF35F2
:10561000BDF80C305B0603D5A38943F04003A3819A
:10562000169800F02FFD28460DF58D6DBDE8F08130
:1056300038B5304B1B6805460C4613B19A6B002AEF
:1056400038D0B4F90C2093B218070CD52069A8B152
:1056500013F001021ED0636900225B42A361A260C5
:10566000F0B1002038BDD9063CD5580726D42069B2
:1056700042F00803A3819BB20028E9D103F4207211
:10568000B2F5007FE4D02846214600F02FFDA38923
:105690002069DDE7990758BF6269A2600028E0D160
:1056A000B4F90C301A06DDD543F04003A3814FF066
:1056B000FF3038BD184600F027F9C2E7216B51B121
:1056C00004F14003994204D0284600F043FAB4F9AB
:1056D0000C200023236300232069636022F024024E
:1056E0002060C5E742F0400209232B604FF0FF30F5
:1056F000A28138BD14004020024B13B1024800F0D3
:1057000005B87047000000007959400000230146A9
:105710001A46184601F090B8B1F90C309AB22DE94A
:10572000F0410D46110780463AD46A6843F400639D
:10573000002AAB816FDDAC6A002C49D000229BB2FD
:10574000D8F80060C8F8002013F4805267D02A6DA2
:105750005F0705D569682B6B521A0BB1EB6BD21A38
:105760000023E9694046A047441C3CD0B5F90C3001
:105770002A692A6023F400630022AB81DB046A609B
:1057800047D4296BC8F8006011B305F14003994272
:1057900002D0404600F0DEF900202863BDE8F08129
:1057A0002E69AEB12C682E6091070CBF6B69002387
:1057B000A41BAB600AE0234632466F6AE9694046A3
:1057C000B8470028A4EB0004064404DD002CF2DCFA
:1057D0000020BDE8F081AB8943F04003AB814FF07E
:1057E000FF30BDE8F081D8F800401D2CF3D8194BEC
:1057F000E340DB4313F00103EDD1B5F90C206B60FE
:1058000022F400632969AB81DA042960B9D5002C40
:10581000B7D12865B5E7EA6B002A8CDCD8E701230D
:10582000E9694046A047431C024602D0AB89AC6AF6
:105830008EE7D8F80030002BF8D01D2B01D0162BA6
:1058400002D1C8F80060C3E7AB8943F04003AB81E5
:10585000BDE8F0810100402038B50D46044608B18E
:10586000836BBBB1B5F90C0088B16B6EDB0701D45B
:10587000810517D520462946FFF74EFF6B6EDA07E4
:10588000044602D4AB899B0507D5204638BD0446A3
:10589000204638BD00F038F8E4E7A86D00F0F6FBCC
:1058A000204638BDA86D00F0EFFBE3E7014900F0AA
:1058B000AFBB00BF2169400010B5002304468181C1
:1058C000C281036043608360436603614361836117
:1058D000194608225C30FEF72FFE07480749084AA0
:1058E000084B2062E4616162A262E36204F1580045
:1058F000BDE8104000F0C4BB65664000896640000A
:10590000C5664000E566400010B50446124800F048
:10591000BBFBA26BD2B904F53B731048C4F8E83264
:105920000321C4F8E022E063C4F8E41260680421B3
:10593000FFF7C2FF01220921A068FFF7BDFF022285
:105940001221E068FFF7B8FF0123A3630248BDE816
:10595000104000F09BBB00BFD40C4020AD5840006D
:10596000014800F091BB00BFE80C4020014800F066
:105970008DBB00BFE80C402038B50A4C0A4D641BB3
:10598000A4100AD004F18043013B05EB8305013CE0
:1059900055F804399847002CF9D1BDE8384001F09A
:1059A00017BB00BFE06F4000DC6F40002DE9F047FF
:1059B00082B080468946144600F054FB012836D058
:1059C0004A4604F15C0301A9404600F0E7FE421C90
:1059D000064625D0A8B39DF804E000250DF1040A81
:1059E00009E023685A1C226083F800E00135B542C3
:1059F00027D215F80AE0A368013B002BA360F0DA78
:105A0000A769BB4271462246404602DBBEF10A0F3F
:105A1000E7D100F06BFE431CE8D102B0BDE8F0878F
:105A2000A38943F04003A38102B0BDE8F08709F1E8
:105A3000FF33FE2BC4D85FFA89FE06468DF804E0DA
:105A4000CBE7484602B0BDE8F08700BF30B5536EE3
:105A500013F0010FB2F90C30144683B005469AB228
:105A600001D190051CD5900406D4626E43F4005316
:105A700042F40052A381626628462246FFF796FF51
:105A8000636EDA07054602D4A3899B0502D5284632
:105A900003B030BDA06D00F0F9FA284603B030BD68
:105AA000A06D019100F0F0FAB4F90C3001999AB2AE
:105AB000D9E700BFF8B5244F0C460646FEF78AFD2D
:105AC000BB685D68C4F57E610F3125F0030529448C
:105AD00021F47F6121F00F01A1F58054B4F5805FBE
